{
  "_format": "hh-sol-artifact-1",
  "contractName": "Vault",
  "sourceName": "contracts/Vault.sol",
  "abi": [
    {
      "anonymous": false,
      "inputs": [
        {
          "indexed": false,
          "internalType": "bool",
          "name": "",
          "type": "bool"
        },
        {
          "indexed": false,
          "internalType": "bytes",
          "name": "",
          "type": "bytes"
        }
      ],
      "name": "CallResponseEvent",
      "type": "event"
    },
    {
      "inputs": [
        {
          "internalType": "address",
          "name": "tokenAddr",
          "type": "address"
        }
      ],
      "name": "associateFungibleToken",
      "outputs": [
        {
          "internalType": "int256",
          "name": "",
          "type": "int256"
        }
      ],
      "stateMutability": "nonpayable",
      "type": "function"
    },
    {
      "inputs": [
        {
          "internalType": "address",
          "name": "token",
          "type": "address"
        },
        {
          "internalType": "bytes",
          "name": "encodedFunctionSelector",
          "type": "bytes"
        }
      ],
      "name": "redirectForToken",
      "outputs": [
        {
          "internalType": "int256",
          "name": "responseCode",
          "type": "int256"
        },
        {
          "internalType": "bytes",
          "name": "response",
          "type": "bytes"
        }
      ],
      "stateMutability": "nonpayable",
      "type": "function"
    },
    {
      "inputs": [
        {
          "internalType": "address",
          "name": "token",
          "type": "address"
        },
        {
          "internalType": "address",
          "name": "from",
          "type": "address"
        },
        {
          "internalType": "address",
          "name": "to",
          "type": "address"
        },
        {
          "internalType": "uint256",
          "name": "amount",
          "type": "uint256"
        }
      ],
      "name": "transferFrom",
      "outputs": [
        {
          "internalType": "int64",
          "name": "responseCode",
          "type": "int64"
        }
      ],
      "stateMutability": "nonpayable",
      "type": "function"
    },
    {
      "inputs": [
        {
          "internalType": "address",
          "name": "token",
          "type": "address"
        },
        {
          "internalType": "address",
          "name": "from",
          "type": "address"
        },
        {
          "internalType": "address",
          "name": "to",
          "type": "address"
        },
        {
          "internalType": "uint256",
          "name": "serialNumber",
          "type": "uint256"
        }
      ],
      "name": "transferFromNFT",
      "outputs": [
        {
          "internalType": "int64",
          "name": "responseCode",
          "type": "int64"
        }
      ],
      "stateMutability": "nonpayable",
      "type": "function"
    },
    {
      "inputs": [
        {
          "internalType": "address",
          "name": "tokenId",
          "type": "address"
        }
      ],
      "name": "withdraw",
      "outputs": [],
      "stateMutability": "nonpayable",
      "type": "function"
    }
  ],
  "bytecode": "0x608060405234801561001057600080fd5b50610f69806100206000396000f3fe608060405234801561001057600080fd5b50600436106100575760003560e01c806315dacbea1461005c57806351cff8d91461008c578063618dc65e146100a85780639b23d3d9146100d9578063e5a2621f14610109575b600080fd5b610076600480360381019061007191906107fb565b610139565b604051610083919061087e565b60405180910390f35b6100a660048036038101906100a19190610899565b610257565b005b6100c260048036038101906100bd9190610a0c565b610352565b6040516100d0929190610b00565b60405180910390f35b6100f360048036038101906100ee91906107fb565b6104bf565b604051610100919061087e565b60405180910390f35b610123600480360381019061011e9190610899565b6105dd565b6040516101309190610b30565b60405180910390f35b600080600061016773ffffffffffffffffffffffffffffffffffffffff166315dacbea60e01b888888886040516024016101769493929190610b69565b604051602081830303815290604052907bffffffffffffffffffffffffffffffffffffffffffffffffffffffff19166020820180517bffffffffffffffffffffffffffffffffffffffffffffffffffffffff83818316178352505050506040516101e09190610bea565b6000604051808303816000865af19150503d806000811461021d576040519150601f19603f3d011682016040523d82523d6000602084013e610222565b606091505b509150915081610233576015610248565b808060200190518101906102479190610c3a565b5b60030b92505050949350505050565b8073ffffffffffffffffffffffffffffffffffffffff1663a9059cbb338373ffffffffffffffffffffffffffffffffffffffff166370a08231306040518263ffffffff1660e01b81526004016102ad9190610c67565b602060405180830381865afa1580156102ca573d6000803e3d6000fd5b505050506040513d601f19601f820116820180604052508101906102ee9190610c97565b6040518363ffffffff1660e01b815260040161030b929190610cc4565b6020604051808303816000875af115801561032a573d6000803e3d6000fd5b505050506040513d601f19601f8201168201806040525081019061034e9190610d25565b5050565b6000606060008061016773ffffffffffffffffffffffffffffffffffffffff1663618dc65e60e01b878760405160240161038d929190610d52565b604051602081830303815290604052907bffffffffffffffffffffffffffffffffffffffffffffffffffffffff19166020820180517bffffffffffffffffffffffffffffffffffffffffffffffffffffffff83818316178352505050506040516103f79190610bea565b6000604051808303816000865af19150503d8060008114610434576040519150601f19603f3d011682016040523d82523d6000602084013e610439565b606091505b50915091507f4af4780e06fe8cb9df64b0794fa6f01399af979175bb988e35e0e57e594567bc828260405161046f929190610d91565b60405180910390a181610493576015604051806020016040528060008152506104a8565b808060200190518101906104a79190610e31565b5b8160030b9150809450819550505050509250929050565b600080600061016773ffffffffffffffffffffffffffffffffffffffff16639b23d3d960e01b888888886040516024016104fc9493929190610b69565b604051602081830303815290604052907bffffffffffffffffffffffffffffffffffffffffffffffffffffffff19166020820180517bffffffffffffffffffffffffffffffffffffffffffffffffffffffff83818316178352505050506040516105669190610bea565b6000604051808303816000865af19150503d80600081146105a3576040519150601f19603f3d011682016040523d82523d6000602084013e6105a8565b606091505b5091509150816105b95760156105ce565b808060200190518101906105cd9190610c3a565b5b60030b92505050949350505050565b6000806105ea308461063b565b9050601660030b8114610632576040517f08c379a000000000000000000000000000000000000000000000000000000000815260040161062990610eea565b60405180910390fd5b80915050919050565b600080600061016773ffffffffffffffffffffffffffffffffffffffff166349146bde60e01b8686604051602401610674929190610f0a565b604051602081830303815290604052907bffffffffffffffffffffffffffffffffffffffffffffffffffffffff19166020820180517bffffffffffffffffffffffffffffffffffffffffffffffffffffffff83818316178352505050506040516106de9190610bea565b6000604051808303816000865af19150503d806000811461071b576040519150601f19603f3d011682016040523d82523d6000602084013e610720565b606091505b509150915081610731576015610746565b808060200190518101906107459190610c3a565b5b60030b9250505092915050565b6000604051905090565b600080fd5b600080fd5b600073ffffffffffffffffffffffffffffffffffffffff82169050919050565b600061079282610767565b9050919050565b6107a281610787565b81146107ad57600080fd5b50565b6000813590506107bf81610799565b92915050565b6000819050919050565b6107d8816107c5565b81146107e357600080fd5b50565b6000813590506107f5816107cf565b92915050565b600080600080608085870312156108155761081461075d565b5b6000610823878288016107b0565b9450506020610834878288016107b0565b9350506040610845878288016107b0565b9250506060610856878288016107e6565b91505092959194509250565b60008160070b9050919050565b61087881610862565b82525050565b6000602082019050610893600083018461086f565b92915050565b6000602082840312156108af576108ae61075d565b5b60006108bd848285016107b0565b91505092915050565b600080fd5b600080fd5b6000601f19601f8301169050919050565b7f4e487b7100000000000000000000000000000000000000000000000000000000600052604160045260246000fd5b610919826108d0565b810181811067ffffffffffffffff82111715610938576109376108e1565b5b80604052505050565b600061094b610753565b90506109578282610910565b919050565b600067ffffffffffffffff821115610977576109766108e1565b5b610980826108d0565b9050602081019050919050565b82818337600083830152505050565b60006109af6109aa8461095c565b610941565b9050828152602081018484840111156109cb576109ca6108cb565b5b6109d684828561098d565b509392505050565b600082601f8301126109f3576109f26108c6565b5b8135610a0384826020860161099c565b91505092915050565b60008060408385031215610a2357610a2261075d565b5b6000610a31858286016107b0565b925050602083013567ffffffffffffffff811115610a5257610a51610762565b5b610a5e858286016109de565b9150509250929050565b6000819050919050565b610a7b81610a68565b82525050565b600081519050919050565b600082825260208201905092915050565b60005b83811015610abb578082015181840152602081019050610aa0565b60008484015250505050565b6000610ad282610a81565b610adc8185610a8c565b9350610aec818560208601610a9d565b610af5816108d0565b840191505092915050565b6000604082019050610b156000830185610a72565b8181036020830152610b278184610ac7565b90509392505050565b6000602082019050610b456000830184610a72565b92915050565b610b5481610787565b82525050565b610b63816107c5565b82525050565b6000608082019050610b7e6000830187610b4b565b610b8b6020830186610b4b565b610b986040830185610b4b565b610ba56060830184610b5a565b95945050505050565b600081905092915050565b6000610bc482610a81565b610bce8185610bae565b9350610bde818560208601610a9d565b80840191505092915050565b6000610bf68284610bb9565b915081905092915050565b60008160030b9050919050565b610c1781610c01565b8114610c2257600080fd5b50565b600081519050610c3481610c0e565b92915050565b600060208284031215610c5057610c4f61075d565b5b6000610c5e84828501610c25565b91505092915050565b6000602082019050610c7c6000830184610b4b565b92915050565b600081519050610c91816107cf565b92915050565b600060208284031215610cad57610cac61075d565b5b6000610cbb84828501610c82565b91505092915050565b6000604082019050610cd96000830185610b4b565b610ce66020830184610b5a565b9392505050565b60008115159050919050565b610d0281610ced565b8114610d0d57600080fd5b50565b600081519050610d1f81610cf9565b92915050565b600060208284031215610d3b57610d3a61075d565b5b6000610d4984828501610d10565b91505092915050565b6000604082019050610d676000830185610b4b565b8181036020830152610d798184610ac7565b90509392505050565b610d8b81610ced565b82525050565b6000604082019050610da66000830185610d82565b8181036020830152610db88184610ac7565b90509392505050565b6000610dd4610dcf8461095c565b610941565b905082815260208101848484011115610df057610def6108cb565b5b610dfb848285610a9d565b509392505050565b600082601f830112610e1857610e176108c6565b5b8151610e28848260208601610dc1565b91505092915050565b60008060408385031215610e4857610e4761075d565b5b6000610e5685828601610c25565b925050602083015167ffffffffffffffff811115610e7757610e76610762565b5b610e8385828601610e03565b9150509250929050565b600082825260208201905092915050565b7f4173736f636961746520546f6b656e206661696c656400000000000000000000600082015250565b6000610ed4601683610e8d565b9150610edf82610e9e565b602082019050919050565b60006020820190508181036000830152610f0381610ec7565b9050919050565b6000604082019050610f1f6000830185610b4b565b610f2c6020830184610b4b565b939250505056fea2646970667358221220e712ca9ce856b90bb5d930501e41ad57ce9c0d8c1e8a19e054c0122977e1adf364736f6c63430008110033",
  "linkReferences": {},
  "deployedLinkReferences": {}
}